{
  "_format": "hh-sol-artifact-1",
  "contractName": "NftMarket",
  "sourceName": "contracts/NftMarket.sol",
  "abi": [
    {
      "inputs": [],
      "stateMutability": "nonpayable",
      "type": "constructor"
    },
    {
      "inputs": [
        {
          "internalType": "address",
          "name": "sender",
          "type": "address"
        },
        {
          "internalType": "uint256",
          "name": "tokenId",
          "type": "uint256"
        },
        {
          "internalType": "address",
          "name": "owner",
          "type": "address"
        }
      ],
      "name": "ERC721IncorrectOwner",
      "type": "error"
    },
    {
      "inputs": [
        {
          "internalType": "address",
          "name": "operator",
          "type": "address"
        },
        {
          "internalType": "uint256",
          "name": "tokenId",
          "type": "uint256"
        }
      ],
      "name": "ERC721InsufficientApproval",
      "type": "error"
    },
    {
      "inputs": [
        {
          "internalType": "address",
          "name": "approver",
          "type": "address"
        }
      ],
      "name": "ERC721InvalidApprover",
      "type": "error"
    },
    {
      "inputs": [
        {
          "internalType": "address",
          "name": "operator",
          "type": "address"
        }
      ],
      "name": "ERC721InvalidOperator",
      "type": "error"
    },
    {
      "inputs": [
        {
          "internalType": "address",
          "name": "owner",
          "type": "address"
        }
      ],
      "name": "ERC721InvalidOwner",
      "type": "error"
    },
    {
      "inputs": [
        {
          "internalType": "address",
          "name": "receiver",
          "type": "address"
        }
      ],
      "name": "ERC721InvalidReceiver",
      "type": "error"
    },
    {
      "inputs": [
        {
          "internalType": "address",
          "name": "sender",
          "type": "address"
        }
      ],
      "name": "ERC721InvalidSender",
      "type": "error"
    },
    {
      "inputs": [
        {
          "internalType": "uint256",
          "name": "tokenId",
          "type": "uint256"
        }
      ],
      "name": "ERC721NonexistentToken",
      "type": "error"
    },
    {
      "inputs": [
        {
          "internalType": "address",
          "name": "owner",
          "type": "address"
        }
      ],
      "name": "OwnableInvalidOwner",
      "type": "error"
    },
    {
      "inputs": [
        {
          "internalType": "address",
          "name": "account",
          "type": "address"
        }
      ],
      "name": "OwnableUnauthorizedAccount",
      "type": "error"
    },
    {
      "anonymous": false,
      "inputs": [
        {
          "indexed": true,
          "internalType": "address",
          "name": "owner",
          "type": "address"
        },
        {
          "indexed": true,
          "internalType": "address",
          "name": "approved",
          "type": "address"
        },
        {
          "indexed": true,
          "internalType": "uint256",
          "name": "tokenId",
          "type": "uint256"
        }
      ],
      "name": "Approval",
      "type": "event"
    },
    {
      "anonymous": false,
      "inputs": [
        {
          "indexed": true,
          "internalType": "address",
          "name": "owner",
          "type": "address"
        },
        {
          "indexed": true,
          "internalType": "address",
          "name": "operator",
          "type": "address"
        },
        {
          "indexed": false,
          "internalType": "bool",
          "name": "approved",
          "type": "bool"
        }
      ],
      "name": "ApprovalForAll",
      "type": "event"
    },
    {
      "anonymous": false,
      "inputs": [
        {
          "indexed": false,
          "internalType": "uint256",
          "name": "_fromTokenId",
          "type": "uint256"
        },
        {
          "indexed": false,
          "internalType": "uint256",
          "name": "_toTokenId",
          "type": "uint256"
        }
      ],
      "name": "BatchMetadataUpdate",
      "type": "event"
    },
    {
      "anonymous": false,
      "inputs": [
        {
          "indexed": false,
          "internalType": "uint256",
          "name": "_tokenId",
          "type": "uint256"
        }
      ],
      "name": "MetadataUpdate",
      "type": "event"
    },
    {
      "anonymous": false,
      "inputs": [
        {
          "indexed": false,
          "internalType": "uint256",
          "name": "tokenId",
          "type": "uint256"
        },
        {
          "indexed": false,
          "internalType": "uint256",
          "name": "price",
          "type": "uint256"
        },
        {
          "indexed": false,
          "internalType": "address",
          "name": "creator",
          "type": "address"
        },
        {
          "indexed": false,
          "internalType": "bool",
          "name": "isListed",
          "type": "bool"
        }
      ],
      "name": "NftItemCreated",
      "type": "event"
    },
    {
      "anonymous": false,
      "inputs": [
        {
          "indexed": true,
          "internalType": "address",
          "name": "previousOwner",
          "type": "address"
        },
        {
          "indexed": true,
          "internalType": "address",
          "name": "newOwner",
          "type": "address"
        }
      ],
      "name": "OwnershipTransferred",
      "type": "event"
    },
    {
      "anonymous": false,
      "inputs": [
        {
          "indexed": true,
          "internalType": "address",
          "name": "from",
          "type": "address"
        },
        {
          "indexed": true,
          "internalType": "address",
          "name": "to",
          "type": "address"
        },
        {
          "indexed": true,
          "internalType": "uint256",
          "name": "tokenId",
          "type": "uint256"
        }
      ],
      "name": "Transfer",
      "type": "event"
    },
    {
      "inputs": [
        {
          "internalType": "address",
          "name": "to",
          "type": "address"
        },
        {
          "internalType": "uint256",
          "name": "tokenId",
          "type": "uint256"
        }
      ],
      "name": "approve",
      "outputs": [],
      "stateMutability": "nonpayable",
      "type": "function"
    },
    {
      "inputs": [
        {
          "internalType": "address",
          "name": "owner",
          "type": "address"
        }
      ],
      "name": "balanceOf",
      "outputs": [
        {
          "internalType": "uint256",
          "name": "",
          "type": "uint256"
        }
      ],
      "stateMutability": "view",
      "type": "function"
    },
    {
      "inputs": [
        {
          "internalType": "uint256",
          "name": "tokenId",
          "type": "uint256"
        }
      ],
      "name": "buyNft",
      "outputs": [],
      "stateMutability": "payable",
      "type": "function"
    },
    {
      "inputs": [],
      "name": "getAllNftOnSale",
      "outputs": [
        {
          "components": [
            {
              "internalType": "uint256",
              "name": "tokenId",
              "type": "uint256"
            },
            {
              "internalType": "uint256",
              "name": "price",
              "type": "uint256"
            },
            {
              "internalType": "address",
              "name": "creator",
              "type": "address"
            },
            {
              "internalType": "bool",
              "name": "isListed",
              "type": "bool"
            }
          ],
          "internalType": "struct NftMarket.NftItem[]",
          "name": "",
          "type": "tuple[]"
        }
      ],
      "stateMutability": "view",
      "type": "function"
    },
    {
      "inputs": [
        {
          "internalType": "uint256",
          "name": "tokenId",
          "type": "uint256"
        }
      ],
      "name": "getApproved",
      "outputs": [
        {
          "internalType": "address",
          "name": "",
          "type": "address"
        }
      ],
      "stateMutability": "view",
      "type": "function"
    },
    {
      "inputs": [
        {
          "internalType": "uint256",
          "name": "tokenId",
          "type": "uint256"
        }
      ],
      "name": "getNftItem",
      "outputs": [
        {
          "components": [
            {
              "internalType": "uint256",
              "name": "tokenId",
              "type": "uint256"
            },
            {
              "internalType": "uint256",
              "name": "price",
              "type": "uint256"
            },
            {
              "internalType": "address",
              "name": "creator",
              "type": "address"
            },
            {
              "internalType": "bool",
              "name": "isListed",
              "type": "bool"
            }
          ],
          "internalType": "struct NftMarket.NftItem",
          "name": "",
          "type": "tuple"
        }
      ],
      "stateMutability": "view",
      "type": "function"
    },
    {
      "inputs": [],
      "name": "getOwnedNfts",
      "outputs": [
        {
          "components": [
            {
              "internalType": "uint256",
              "name": "tokenId",
              "type": "uint256"
            },
            {
              "internalType": "uint256",
              "name": "price",
              "type": "uint256"
            },
            {
              "internalType": "address",
              "name": "creator",
              "type": "address"
            },
            {
              "internalType": "bool",
              "name": "isListed",
              "type": "bool"
            }
          ],
          "internalType": "struct NftMarket.NftItem[]",
          "name": "",
          "type": "tuple[]"
        }
      ],
      "stateMutability": "view",
      "type": "function"
    },
    {
      "inputs": [
        {
          "internalType": "address",
          "name": "owner",
          "type": "address"
        },
        {
          "internalType": "address",
          "name": "operator",
          "type": "address"
        }
      ],
      "name": "isApprovedForAll",
      "outputs": [
        {
          "internalType": "bool",
          "name": "",
          "type": "bool"
        }
      ],
      "stateMutability": "view",
      "type": "function"
    },
    {
      "inputs": [
        {
          "internalType": "string",
          "name": "tokenURI",
          "type": "string"
        }
      ],
      "name": "isUsedURI",
      "outputs": [
        {
          "internalType": "bool",
          "name": "",
          "type": "bool"
        }
      ],
      "stateMutability": "view",
      "type": "function"
    },
    {
      "inputs": [],
      "name": "listedItemsCount",
      "outputs": [
        {
          "internalType": "uint256",
          "name": "",
          "type": "uint256"
        }
      ],
      "stateMutability": "view",
      "type": "function"
    },
    {
      "inputs": [],
      "name": "listingPrice",
      "outputs": [
        {
          "internalType": "uint256",
          "name": "",
          "type": "uint256"
        }
      ],
      "stateMutability": "view",
      "type": "function"
    },
    {
      "inputs": [
        {
          "internalType": "string",
          "name": "tokenURI",
          "type": "string"
        },
        {
          "internalType": "uint256",
          "name": "price",
          "type": "uint256"
        }
      ],
      "name": "mintToken",
      "outputs": [
        {
          "internalType": "uint256",
          "name": "",
          "type": "uint256"
        }
      ],
      "stateMutability": "payable",
      "type": "function"
    },
    {
      "inputs": [],
      "name": "name",
      "outputs": [
        {
          "internalType": "string",
          "name": "",
          "type": "string"
        }
      ],
      "stateMutability": "view",
      "type": "function"
    },
    {
      "inputs": [
        {
          "internalType": "uint256",
          "name": "tokenId",
          "type": "uint256"
        },
        {
          "internalType": "uint256",
          "name": "price",
          "type": "uint256"
        }
      ],
      "name": "onSale",
      "outputs": [],
      "stateMutability": "payable",
      "type": "function"
    },
    {
      "inputs": [],
      "name": "owner",
      "outputs": [
        {
          "internalType": "address",
          "name": "",
          "type": "address"
        }
      ],
      "stateMutability": "view",
      "type": "function"
    },
    {
      "inputs": [
        {
          "internalType": "uint256",
          "name": "tokenId",
          "type": "uint256"
        }
      ],
      "name": "ownerOf",
      "outputs": [
        {
          "internalType": "address",
          "name": "",
          "type": "address"
        }
      ],
      "stateMutability": "view",
      "type": "function"
    },
    {
      "inputs": [],
      "name": "renounceOwnership",
      "outputs": [],
      "stateMutability": "nonpayable",
      "type": "function"
    },
    {
      "inputs": [
        {
          "internalType": "address",
          "name": "from",
          "type": "address"
        },
        {
          "internalType": "address",
          "name": "to",
          "type": "address"
        },
        {
          "internalType": "uint256",
          "name": "tokenId",
          "type": "uint256"
        }
      ],
      "name": "safeTransferFrom",
      "outputs": [],
      "stateMutability": "nonpayable",
      "type": "function"
    },
    {
      "inputs": [
        {
          "internalType": "address",
          "name": "from",
          "type": "address"
        },
        {
          "internalType": "address",
          "name": "to",
          "type": "address"
        },
        {
          "internalType": "uint256",
          "name": "tokenId",
          "type": "uint256"
        },
        {
          "internalType": "bytes",
          "name": "data",
          "type": "bytes"
        }
      ],
      "name": "safeTransferFrom",
      "outputs": [],
      "stateMutability": "nonpayable",
      "type": "function"
    },
    {
      "inputs": [
        {
          "internalType": "address",
          "name": "operator",
          "type": "address"
        },
        {
          "internalType": "bool",
          "name": "approved",
          "type": "bool"
        }
      ],
      "name": "setApprovalForAll",
      "outputs": [],
      "stateMutability": "nonpayable",
      "type": "function"
    },
    {
      "inputs": [
        {
          "internalType": "uint256",
          "name": "newPrice",
          "type": "uint256"
        }
      ],
      "name": "setListingPrice",
      "outputs": [],
      "stateMutability": "nonpayable",
      "type": "function"
    },
    {
      "inputs": [
        {
          "internalType": "bytes4",
          "name": "interfaceId",
          "type": "bytes4"
        }
      ],
      "name": "supportsInterface",
      "outputs": [
        {
          "internalType": "bool",
          "name": "",
          "type": "bool"
        }
      ],
      "stateMutability": "view",
      "type": "function"
    },
    {
      "inputs": [],
      "name": "symbol",
      "outputs": [
        {
          "internalType": "string",
          "name": "",
          "type": "string"
        }
      ],
      "stateMutability": "view",
      "type": "function"
    },
    {
      "inputs": [
        {
          "internalType": "uint256",
          "name": "index",
          "type": "uint256"
        }
      ],
      "name": "tokenByIndex",
      "outputs": [
        {
          "internalType": "uint256",
          "name": "",
          "type": "uint256"
        }
      ],
      "stateMutability": "view",
      "type": "function"
    },
    {
      "inputs": [
        {
          "internalType": "address",
          "name": "owner",
          "type": "address"
        },
        {
          "internalType": "uint256",
          "name": "index",
          "type": "uint256"
        }
      ],
      "name": "tokenOfOwnerByIndex",
      "outputs": [
        {
          "internalType": "uint256",
          "name": "",
          "type": "uint256"
        }
      ],
      "stateMutability": "view",
      "type": "function"
    },
    {
      "inputs": [
        {
          "internalType": "uint256",
          "name": "tokenId",
          "type": "uint256"
        }
      ],
      "name": "tokenURI",
      "outputs": [
        {
          "internalType": "string",
          "name": "",
          "type": "string"
        }
      ],
      "stateMutability": "view",
      "type": "function"
    },
    {
      "inputs": [],
      "name": "totalSupply",
      "outputs": [
        {
          "internalType": "uint256",
          "name": "",
          "type": "uint256"
        }
      ],
      "stateMutability": "view",
      "type": "function"
    },
    {
      "inputs": [
        {
          "internalType": "address",
          "name": "from",
          "type": "address"
        },
        {
          "internalType": "address",
          "name": "to",
          "type": "address"
        },
        {
          "internalType": "uint256",
          "name": "tokenId",
          "type": "uint256"
        }
      ],
      "name": "transferFrom",
      "outputs": [],
      "stateMutability": "nonpayable",
      "type": "function"
    },
    {
      "inputs": [
        {
          "internalType": "address",
          "name": "newOwner",
          "type": "address"
        }
      ],
      "name": "transferOwnership",
      "outputs": [],
      "stateMutability": "nonpayable",
      "type": "function"
    }
  ],
  "bytecode": "0x60806040526658d15e1762800060085534801561001b57600080fd5b50336040518060400160405280600681526020017f546f784e465400000000000000000000000000000000000000000000000000008152506040518060400160405280600381526020017f4e4654000000000000000000000000000000000000000000000000000000000081525081600090816100989190610448565b5080600190816100a89190610448565b505050600073ffffffffffffffffffffffffffffffffffffffff168173ffffffffffffffffffffffffffffffffffffffff160361011d5760006040517f1e4fbdf7000000000000000000000000000000000000000000000000000000008152600401610114919061055b565b60405180910390fd5b61012c8161013260201b60201c565b50610576565b6000600760009054906101000a900473ffffffffffffffffffffffffffffffffffffffff16905081600760006101000a81548173ffffffffffffffffffffffffffffffffffffffff021916908373ffffffffffffffffffffffffffffffffffffffff1602179055508173ffffffffffffffffffffffffffffffffffffffff168173ffffffffffffffffffffffffffffffffffffffff167f8be0079c531659141344cd1fd0a4f28419497f9722a3daafe3b4186f6b6457e060405160405180910390a35050565b600081519050919050565b7f4e487b7100000000000000000000000000000000000000000000000000000000600052604160045260246000fd5b7f4e487b7100000000000000000000000000000000000000000000000000000000600052602260045260246000fd5b6000600282049050600182168061027957607f821691505b60208210810361028c5761028b610232565b5b50919050565b60008190508160005260206000209050919050565b60006020601f8301049050919050565b600082821b905092915050565b6000600883026102f47fffffffffffffffffffffffffffffffffffffffffffffffffffffffffffffffff826102b7565b6102fe86836102b7565b95508019841693508086168417925050509392505050565b6000819050919050565b6000819050919050565b600061034561034061033b84610316565b610320565b610316565b9050919050565b6000819050919050565b61035f8361032a565b61037361036b8261034c565b8484546102c4565b825550505050565b600090565b61038861037b565b610393818484610356565b505050565b5b818110156103b7576103ac600082610380565b600181019050610399565b5050565b601f8211156103fc576103cd81610292565b6103d6846102a7565b810160208510156103e5578190505b6103f96103f1856102a7565b830182610398565b50505b505050565b600082821c905092915050565b600061041f60001984600802610401565b1980831691505092915050565b6000610438838361040e565b9150826002028217905092915050565b610451826101f8565b67ffffffffffffffff81111561046a57610469610203565b5b6104748254610261565b61047f8282856103bb565b600060209050601f8311600181146104b257600084156104a0578287015190505b6104aa858261042c565b865550610512565b601f1984166104c086610292565b60005b828110156104e8578489015182556001820191506020850194506020810190506104c3565b868310156105055784890151610501601f89168261040e565b8355505b6001600288020188555050505b505050505050565b600073ffffffffffffffffffffffffffffffffffffffff82169050919050565b60006105458261051a565b9050919050565b6105558161053a565b82525050565b6000602082019050610570600083018461054c565b92915050565b613d8b806105856000396000f3fe6080604052600436106101c25760003560e01c806370a08231116100f7578063b88d4fde11610095578063ccb4918d11610064578063ccb4918d14610663578063e985e9c51461068e578063eb3d009c146106cb578063f2fde38b146106f6576101c2565b8063b88d4fde146105a2578063c046372c146105cb578063c78f19f9146105fb578063c87b56dd14610626576101c2565b80637c726b69116100d15780637c726b69146104fa5780638da5cb5b1461052357806395d89b411461054e578063a22cb46514610579576101c2565b806370a082311461047b57806370cbcb43146104b8578063715018a6146104e3576101c2565b80632f745c59116101645780634f6ccce71161013e5780634f6ccce7146103a85780636352211e146103e55780636c6a6481146104225780636f1a0af51461043e576101c2565b80632f745c591461030557806342842e0e1461034257806349bc3cde1461036b576101c2565b8063095ea7b3116101a0578063095ea7b31461026c57806318160ddd1461029557806323b872dd146102c0578063243adbdd146102e9576101c2565b806301ffc9a7146101c757806306fdde0314610204578063081812fc1461022f575b600080fd5b3480156101d357600080fd5b506101ee60048036038101906101e99190612abd565b61071f565b6040516101fb9190612b05565b60405180910390f35b34801561021057600080fd5b50610219610780565b6040516102269190612bb0565b60405180910390f35b34801561023b57600080fd5b5061025660048036038101906102519190612c08565b610812565b6040516102639190612c76565b60405180910390f35b34801561027857600080fd5b50610293600480360381019061028e9190612cbd565b61082e565b005b3480156102a157600080fd5b506102aa610844565b6040516102b79190612d0c565b60405180910390f35b3480156102cc57600080fd5b506102e760048036038101906102e29190612d27565b610851565b005b61030360048036038101906102fe9190612c08565b610953565b005b34801561031157600080fd5b5061032c60048036038101906103279190612cbd565b610ac9565b6040516103399190612d0c565b60405180910390f35b34801561034e57600080fd5b5061036960048036038101906103649190612d27565b610b6e565b005b34801561037757600080fd5b50610392600480360381019061038d9190612eaf565b610b8e565b60405161039f9190612b05565b60405180910390f35b3480156103b457600080fd5b506103cf60048036038101906103ca9190612c08565b610bc3565b6040516103dc9190612d0c565b60405180910390f35b3480156103f157600080fd5b5061040c60048036038101906104079190612c08565b610c34565b6040516104199190612c76565b60405180910390f35b61043c60048036038101906104379190612ef8565b610c46565b005b34801561044a57600080fd5b5061046560048036038101906104609190612c08565b610dcf565b6040516104729190612fba565b60405180910390f35b34801561048757600080fd5b506104a2600480360381019061049d9190612fd5565b610e81565b6040516104af9190612d0c565b60405180910390f35b3480156104c457600080fd5b506104cd610f3b565b6040516104da9190613106565b60405180910390f35b3480156104ef57600080fd5b506104f8611096565b005b34801561050657600080fd5b50610521600480360381019061051c9190612c08565b6110aa565b005b34801561052f57600080fd5b506105386110ff565b6040516105459190612c76565b60405180910390f35b34801561055a57600080fd5b50610563611129565b6040516105709190612bb0565b60405180910390f35b34801561058557600080fd5b506105a0600480360381019061059b9190613154565b6111bb565b005b3480156105ae57600080fd5b506105c960048036038101906105c49190613235565b6111d1565b005b6105e560048036038101906105e091906132b8565b6111f6565b6040516105f29190612d0c565b60405180910390f35b34801561060757600080fd5b5061061061131b565b60405161061d9190612d0c565b60405180910390f35b34801561063257600080fd5b5061064d60048036038101906106489190612c08565b611321565b60405161065a9190612bb0565b60405180910390f35b34801561066f57600080fd5b50610678611434565b6040516106859190612d0c565b60405180910390f35b34801561069a57600080fd5b506106b560048036038101906106b09190613314565b61143e565b6040516106c29190612b05565b60405180910390f35b3480156106d757600080fd5b506106e06114d2565b6040516106ed9190613106565b60405180910390f35b34801561070257600080fd5b5061071d60048036038101906107189190612fd5565b61165d565b005b6000634906490660e01b7bffffffffffffffffffffffffffffffffffffffffffffffffffffffff1916827bffffffffffffffffffffffffffffffffffffffffffffffffffffffff191614806107795750610778826116e3565b5b9050919050565b60606000805461078f90613383565b80601f01602080910402602001604051908101604052809291908181526020018280546107bb90613383565b80156108085780601f106107dd57610100808354040283529160200191610808565b820191906000526020600020905b8154815290600101906020018083116107eb57829003601f168201915b5050505050905090565b600061081d826117c5565b506108278261184d565b9050919050565b610840828261083b61188a565b611892565b5050565b6000600b80549050905090565b600073ffffffffffffffffffffffffffffffffffffffff168273ffffffffffffffffffffffffffffffffffffffff16036108c35760006040517f64a0ae920000000000000000000000000000000000000000000000000000000081526004016108ba9190612c76565b60405180910390fd5b60006108d783836108d261188a565b6118a4565b90508373ffffffffffffffffffffffffffffffffffffffff168173ffffffffffffffffffffffffffffffffffffffff161461094d578382826040517f64283d7b000000000000000000000000000000000000000000000000000000008152600401610944939291906133b4565b60405180910390fd5b50505050565b6000600c6000838152602001908152602001600020600101549050600061097983610c34565b90508073ffffffffffffffffffffffffffffffffffffffff163373ffffffffffffffffffffffffffffffffffffffff16036109e9576040517f08c379a00000000000000000000000000000000000000000000000000000000081526004016109e090613437565b60405180910390fd5b813414610a2b576040517f08c379a0000000000000000000000000000000000000000000000000000000008152600401610a22906134a3565b60405180910390fd5b6000600c600085815260200190815260200160002060020160146101000a81548160ff02191690831515021790555060096000815480929190610a6d906134f2565b9190505550610a7d813385611abe565b8073ffffffffffffffffffffffffffffffffffffffff166108fc349081150290604051600060405180830381858888f19350505050158015610ac3573d6000803e3d6000fd5b50505050565b6000610ad483610e81565b8210610b15576040517f08c379a0000000000000000000000000000000000000000000000000000000008152600401610b0c90613567565b60405180910390fd5b600e60008473ffffffffffffffffffffffffffffffffffffffff1673ffffffffffffffffffffffffffffffffffffffff168152602001908152602001600020600083815260200190815260200160002054905092915050565b610b89838383604051806020016040528060008152506111d1565b505050565b6000600d82604051610ba091906135c3565b908152602001604051809103902060009054906101000a900460ff169050919050565b6000610bcd610844565b8210610c0e576040517f08c379a0000000000000000000000000000000000000000000000000000000008152600401610c0590613567565b60405180910390fd5b600b8281548110610c2257610c216135da565b5b90600052602060002001549050919050565b6000610c3f826117c5565b9050919050565b3373ffffffffffffffffffffffffffffffffffffffff16610c6683610c34565b73ffffffffffffffffffffffffffffffffffffffff1614610cbc576040517f08c379a0000000000000000000000000000000000000000000000000000000008152600401610cb390613655565b60405180910390fd5b60001515600c600084815260200190815260200160002060020160149054906101000a900460ff16151514610d26576040517f08c379a0000000000000000000000000000000000000000000000000000000008152600401610d1d906136c1565b60405180910390fd5b60008111610d69576040517f08c379a0000000000000000000000000000000000000000000000000000000008152600401610d609061372d565b60405180910390fd5b6001600c600084815260200190815260200160002060020160146101000a81548160ff02191690831515021790555080600c60008481526020019081526020016000206001018190555060096000815480929190610dc69061374d565b91905055505050565b610dd7612a11565b600c600083815260200190815260200160002060405180608001604052908160008201548152602001600182015481526020016002820160009054906101000a900473ffffffffffffffffffffffffffffffffffffffff1673ffffffffffffffffffffffffffffffffffffffff1673ffffffffffffffffffffffffffffffffffffffff1681526020016002820160149054906101000a900460ff1615151515815250509050919050565b60008073ffffffffffffffffffffffffffffffffffffffff168273ffffffffffffffffffffffffffffffffffffffff1603610ef45760006040517f89c62b64000000000000000000000000000000000000000000000000000000008152600401610eeb9190612c76565b60405180910390fd5b600360008373ffffffffffffffffffffffffffffffffffffffff1673ffffffffffffffffffffffffffffffffffffffff168152602001908152602001600020549050919050565b60606000610f4833610e81565b905060008167ffffffffffffffff811115610f6657610f65612d84565b5b604051908082528060200260200182016040528015610f9f57816020015b610f8c612a11565b815260200190600190039081610f845790505b50905060005b8281101561108d576000610fb882610bc3565b90506000600c600083815260200190815260200160002090508060405180608001604052908160008201548152602001600182015481526020016002820160009054906101000a900473ffffffffffffffffffffffffffffffffffffffff1673ffffffffffffffffffffffffffffffffffffffff1673ffffffffffffffffffffffffffffffffffffffff1681526020016002820160149054906101000a900460ff161515151581525050848481518110611075576110746135da565b5b60200260200101819052505050806001019050610fa5565b50809250505090565b61109e611c2b565b6110a86000611cb2565b565b6110b2611c2b565b600081116110f5576040517f08c379a00000000000000000000000000000000000000000000000000000000081526004016110ec906137e1565b60405180910390fd5b8060088190555050565b6000600760009054906101000a900473ffffffffffffffffffffffffffffffffffffffff16905090565b60606001805461113890613383565b80601f016020809104026020016040519081016040528092919081815260200182805461116490613383565b80156111b15780601f10611186576101008083540402835291602001916111b1565b820191906000526020600020905b81548152906001019060200180831161119457829003601f168201915b5050505050905090565b6111cd6111c661188a565b8383611d78565b5050565b6111dc848484610851565b6111f06111e761188a565b85858585611ee7565b50505050565b600061120183610b8e565b15611241576040517f08c379a00000000000000000000000000000000000000000000000000000000081526004016112389061384d565b60405180910390fd5b6008543414611285576040517f08c379a000000000000000000000000000000000000000000000000000000000815260040161127c906138df565b60405180910390fd5b600a60008154809291906112989061374d565b9190505550600960008154809291906112b09061374d565b91905055506000600a5490506112c63382612098565b6112d081856120b6565b6112da8184612112565b6001600d856040516112ec91906135c3565b908152602001604051809103902060006101000a81548160ff0219169083151502179055508091505092915050565b60085481565b606061132c826117c5565b50600060066000848152602001908152602001600020805461134d90613383565b80601f016020809104026020016040519081016040528092919081815260200182805461137990613383565b80156113c65780601f1061139b576101008083540402835291602001916113c6565b820191906000526020600020905b8154815290600101906020018083116113a957829003601f168201915b5050505050905060006113d7612262565b905060008151036113ec57819250505061142f565b6000825111156114215780826040516020016114099291906138ff565b6040516020818303038152906040529250505061142f565b61142a84612279565b925050505b919050565b6000600954905090565b6000600560008473ffffffffffffffffffffffffffffffffffffffff1673ffffffffffffffffffffffffffffffffffffffff16815260200190815260200160002060008373ffffffffffffffffffffffffffffffffffffffff1673ffffffffffffffffffffffffffffffffffffffff16815260200190815260200160002060009054906101000a900460ff16905092915050565b606060006114de610844565b905060008060095467ffffffffffffffff8111156114ff576114fe612d84565b5b60405190808252806020026020018201604052801561153857816020015b611525612a11565b81526020019060019003908161151d5790505b50905060005b8381101561165357600061155182610bc3565b90506000600c60008381526020019081526020016000209050600115158160020160149054906101000a900460ff16151503611646578060405180608001604052908160008201548152602001600182015481526020016002820160009054906101000a900473ffffffffffffffffffffffffffffffffffffffff1673ffffffffffffffffffffffffffffffffffffffff1673ffffffffffffffffffffffffffffffffffffffff1681526020016002820160149054906101000a900460ff16151515158152505084868151811061162b5761162a6135da565b5b60200260200101819052506001856116439190613923565b94505b505080600101905061153e565b5080935050505090565b611665611c2b565b600073ffffffffffffffffffffffffffffffffffffffff168173ffffffffffffffffffffffffffffffffffffffff16036116d75760006040517f1e4fbdf70000000000000000000000000000000000000000000000000000000081526004016116ce9190612c76565b60405180910390fd5b6116e081611cb2565b50565b60007f80ac58cd000000000000000000000000000000000000000000000000000000007bffffffffffffffffffffffffffffffffffffffffffffffffffffffff1916827bffffffffffffffffffffffffffffffffffffffffffffffffffffffff191614806117ae57507f5b5e139f000000000000000000000000000000000000000000000000000000007bffffffffffffffffffffffffffffffffffffffffffffffffffffffff1916827bffffffffffffffffffffffffffffffffffffffffffffffffffffffff1916145b806117be57506117bd826122e2565b5b9050919050565b6000806117d18361234c565b9050600073ffffffffffffffffffffffffffffffffffffffff168173ffffffffffffffffffffffffffffffffffffffff160361184457826040517f7e27328900000000000000000000000000000000000000000000000000000000815260040161183b9190612d0c565b60405180910390fd5b80915050919050565b60006004600083815260200190815260200160002060009054906101000a900473ffffffffffffffffffffffffffffffffffffffff169050919050565b600033905090565b61189f8383836001612389565b505050565b6000806118b08461234c565b9050600073ffffffffffffffffffffffffffffffffffffffff168373ffffffffffffffffffffffffffffffffffffffff16146118f2576118f181848661254e565b5b600073ffffffffffffffffffffffffffffffffffffffff168173ffffffffffffffffffffffffffffffffffffffff161461198357611934600085600080612389565b6001600360008373ffffffffffffffffffffffffffffffffffffffff1673ffffffffffffffffffffffffffffffffffffffff168152602001908152602001600020600082825403925050819055505b600073ffffffffffffffffffffffffffffffffffffffff168573ffffffffffffffffffffffffffffffffffffffff1614611a06576001600360008773ffffffffffffffffffffffffffffffffffffffff1673ffffffffffffffffffffffffffffffffffffffff168152602001908152602001600020600082825401925050819055505b846002600086815260200190815260200160002060006101000a81548173ffffffffffffffffffffffffffffffffffffffff021916908373ffffffffffffffffffffffffffffffffffffffff160217905550838573ffffffffffffffffffffffffffffffffffffffff168273ffffffffffffffffffffffffffffffffffffffff167fddf252ad1be2c89b69c2b068fc378daa952ba7f163c4a11628f55a4df523b3ef60405160405180910390a4809150509392505050565b600073ffffffffffffffffffffffffffffffffffffffff168273ffffffffffffffffffffffffffffffffffffffff1603611b305760006040517f64a0ae92000000000000000000000000000000000000000000000000000000008152600401611b279190612c76565b60405180910390fd5b6000611b3e838360006118a4565b9050600073ffffffffffffffffffffffffffffffffffffffff168173ffffffffffffffffffffffffffffffffffffffff1603611bb157816040517f7e273289000000000000000000000000000000000000000000000000000000008152600401611ba89190612d0c565b60405180910390fd5b8373ffffffffffffffffffffffffffffffffffffffff168173ffffffffffffffffffffffffffffffffffffffff1614611c25578382826040517f64283d7b000000000000000000000000000000000000000000000000000000008152600401611c1c939291906133b4565b60405180910390fd5b50505050565b611c3361188a565b73ffffffffffffffffffffffffffffffffffffffff16611c516110ff565b73ffffffffffffffffffffffffffffffffffffffff1614611cb057611c7461188a565b6040517f118cdaa7000000000000000000000000000000000000000000000000000000008152600401611ca79190612c76565b60405180910390fd5b565b6000600760009054906101000a900473ffffffffffffffffffffffffffffffffffffffff16905081600760006101000a81548173ffffffffffffffffffffffffffffffffffffffff021916908373ffffffffffffffffffffffffffffffffffffffff1602179055508173ffffffffffffffffffffffffffffffffffffffff168173ffffffffffffffffffffffffffffffffffffffff167f8be0079c531659141344cd1fd0a4f28419497f9722a3daafe3b4186f6b6457e060405160405180910390a35050565b600073ffffffffffffffffffffffffffffffffffffffff168273ffffffffffffffffffffffffffffffffffffffff1603611de957816040517f5b08ba18000000000000000000000000000000000000000000000000000000008152600401611de09190612c76565b60405180910390fd5b80600560008573ffffffffffffffffffffffffffffffffffffffff1673ffffffffffffffffffffffffffffffffffffffff16815260200190815260200160002060008473ffffffffffffffffffffffffffffffffffffffff1673ffffffffffffffffffffffffffffffffffffffff16815260200190815260200160002060006101000a81548160ff0219169083151502179055508173ffffffffffffffffffffffffffffffffffffffff168373ffffffffffffffffffffffffffffffffffffffff167f17307eab39ab6107e8899845ad3d59bd9653f200f220920489ca2b5937696c3183604051611eda9190612b05565b60405180910390a3505050565b60008373ffffffffffffffffffffffffffffffffffffffff163b1115612091578273ffffffffffffffffffffffffffffffffffffffff1663150b7a02868685856040518563ffffffff1660e01b8152600401611f4694939291906139ac565b6020604051808303816000875af1925050508015611f8257506040513d601f19601f82011682018060405250810190611f7f9190613a0d565b60015b612006573d8060008114611fb2576040519150601f19603f3d011682016040523d82523d6000602084013e611fb7565b606091505b506000815103611ffe57836040517f64a0ae92000000000000000000000000000000000000000000000000000000008152600401611ff59190612c76565b60405180910390fd5b805160208201fd5b63150b7a0260e01b7bffffffffffffffffffffffffffffffffffffffffffffffffffffffff1916817bffffffffffffffffffffffffffffffffffffffffffffffffffffffff19161461208f57836040517f64a0ae920000000000000000000000000000000000000000000000000000000081526004016120869190612c76565b60405180910390fd5b505b5050505050565b6120b2828260405180602001604052806000815250612612565b5050565b806006600084815260200190815260200160002090816120d69190613be6565b507ff8e1a15aba9398e019f0b49df1a4fde98ee17ae345cb5f6b5e2c27f5033e8ce7826040516121069190612d0c565b60405180910390a15050565b60008111612155576040517f08c379a000000000000000000000000000000000000000000000000000000000815260040161214c9061372d565b60405180910390fd5b60405180608001604052808381526020018281526020013373ffffffffffffffffffffffffffffffffffffffff16815260200160001515815250600c6000848152602001908152602001600020600082015181600001556020820151816001015560408201518160020160006101000a81548173ffffffffffffffffffffffffffffffffffffffff021916908373ffffffffffffffffffffffffffffffffffffffff16021790555060608201518160020160146101000a81548160ff0219169083151502179055509050507f470031062672bc0246e132c723a729c4676710ec663a29e86c88678032daddea82823360006040516122569493929190613cb8565b60405180910390a15050565b606060405180602001604052806000815250905090565b6060612284826117c5565b50600061228f612262565b905060008151116122af57604051806020016040528060008152506122da565b806122b984612636565b6040516020016122ca9291906138ff565b6040516020818303038152906040525b915050919050565b60007f01ffc9a7000000000000000000000000000000000000000000000000000000007bffffffffffffffffffffffffffffffffffffffffffffffffffffffff1916827bffffffffffffffffffffffffffffffffffffffffffffffffffffffff1916149050919050565b60006002600083815260200190815260200160002060009054906101000a900473ffffffffffffffffffffffffffffffffffffffff169050919050565b80806123c25750600073ffffffffffffffffffffffffffffffffffffffff168273ffffffffffffffffffffffffffffffffffffffff1614155b156124f65760006123d2846117c5565b9050600073ffffffffffffffffffffffffffffffffffffffff168373ffffffffffffffffffffffffffffffffffffffff161415801561243d57508273ffffffffffffffffffffffffffffffffffffffff168173ffffffffffffffffffffffffffffffffffffffff1614155b8015612450575061244e818461143e565b155b1561249257826040517fa9fbf51f0000000000000000000000000000000000000000000000000000000081526004016124899190612c76565b60405180910390fd5b81156124f457838573ffffffffffffffffffffffffffffffffffffffff168273ffffffffffffffffffffffffffffffffffffffff167f8c5be1e5ebec7d5bd14f71427d1e84f3dd0314c0f7b2291e5b200ac8c7c3b92560405160405180910390a45b505b836004600085815260200190815260200160002060006101000a81548173ffffffffffffffffffffffffffffffffffffffff021916908373ffffffffffffffffffffffffffffffffffffffff16021790555050505050565b612559838383612704565b61260d57600073ffffffffffffffffffffffffffffffffffffffff168373ffffffffffffffffffffffffffffffffffffffff16036125ce57806040517f7e2732890000000000000000000000000000000000000000000000000000000081526004016125c59190612d0c565b60405180910390fd5b81816040517f177e802f000000000000000000000000000000000000000000000000000000008152600401612604929190613cfd565b60405180910390fd5b505050565b61261c83836127c5565b61263161262761188a565b6000858585611ee7565b505050565b606060006001612645846128be565b01905060008167ffffffffffffffff81111561266457612663612d84565b5b6040519080825280601f01601f1916602001820160405280156126965781602001600182028036833780820191505090505b509050600082602083010190505b6001156126f9578080600190039150507f3031323334353637383961626364656600000000000000000000000000000000600a86061a8153600a85816126ed576126ec613d26565b5b049450600085036126a4575b819350505050919050565b60008073ffffffffffffffffffffffffffffffffffffffff168373ffffffffffffffffffffffffffffffffffffffff16141580156127bc57508273ffffffffffffffffffffffffffffffffffffffff168473ffffffffffffffffffffffffffffffffffffffff16148061277d575061277c848461143e565b5b806127bb57508273ffffffffffffffffffffffffffffffffffffffff166127a38361184d565b73ffffffffffffffffffffffffffffffffffffffff16145b5b90509392505050565b600073ffffffffffffffffffffffffffffffffffffffff168273ffffffffffffffffffffffffffffffffffffffff16036128375760006040517f64a0ae9200000000000000000000000000000000000000000000000000000000815260040161282e9190612c76565b60405180910390fd5b6000612845838360006118a4565b9050600073ffffffffffffffffffffffffffffffffffffffff168173ffffffffffffffffffffffffffffffffffffffff16146128b95760006040517f73c6ac6e0000000000000000000000000000000000000000000000000000000081526004016128b09190612c76565b60405180910390fd5b505050565b600080600090507a184f03e93ff9f4daa797ed6e38ed64bf6a1f010000000000000000831061291c577a184f03e93ff9f4daa797ed6e38ed64bf6a1f010000000000000000838161291257612911613d26565b5b0492506040810190505b6d04ee2d6d415b85acef81000000008310612959576d04ee2d6d415b85acef8100000000838161294f5761294e613d26565b5b0492506020810190505b662386f26fc10000831061298857662386f26fc10000838161297e5761297d613d26565b5b0492506010810190505b6305f5e10083106129b1576305f5e10083816129a7576129a6613d26565b5b0492506008810190505b61271083106129d65761271083816129cc576129cb613d26565b5b0492506004810190505b606483106129f957606483816129ef576129ee613d26565b5b0492506002810190505b600a8310612a08576001810190505b80915050919050565b60405180608001604052806000815260200160008152602001600073ffffffffffffffffffffffffffffffffffffffff1681526020016000151581525090565b6000604051905090565b600080fd5b600080fd5b60007fffffffff0000000000000000000000000000000000000000000000000000000082169050919050565b612a9a81612a65565b8114612aa557600080fd5b50565b600081359050612ab781612a91565b92915050565b600060208284031215612ad357612ad2612a5b565b5b6000612ae184828501612aa8565b91505092915050565b60008115159050919050565b612aff81612aea565b82525050565b6000602082019050612b1a6000830184612af6565b92915050565b600081519050919050565b600082825260208201905092915050565b60005b83811015612b5a578082015181840152602081019050612b3f565b60008484015250505050565b6000601f19601f8301169050919050565b6000612b8282612b20565b612b8c8185612b2b565b9350612b9c818560208601612b3c565b612ba581612b66565b840191505092915050565b60006020820190508181036000830152612bca8184612b77565b905092915050565b6000819050919050565b612be581612bd2565b8114612bf057600080fd5b50565b600081359050612c0281612bdc565b92915050565b600060208284031215612c1e57612c1d612a5b565b5b6000612c2c84828501612bf3565b91505092915050565b600073ffffffffffffffffffffffffffffffffffffffff82169050919050565b6000612c6082612c35565b9050919050565b612c7081612c55565b82525050565b6000602082019050612c8b6000830184612c67565b92915050565b612c9a81612c55565b8114612ca557600080fd5b50565b600081359050612cb781612c91565b92915050565b60008060408385031215612cd457612cd3612a5b565b5b6000612ce285828601612ca8565b9250506020612cf385828601612bf3565b9150509250929050565b612d0681612bd2565b82525050565b6000602082019050612d216000830184612cfd565b92915050565b600080600060608486031215612d4057612d3f612a5b565b5b6000612d4e86828701612ca8565b9350506020612d5f86828701612ca8565b9250506040612d7086828701612bf3565b9150509250925092565b600080fd5b600080fd5b7f4e487b7100000000000000000000000000000000000000000000000000000000600052604160045260246000fd5b612dbc82612b66565b810181811067ffffffffffffffff82111715612ddb57612dda612d84565b5b80604052505050565b6000612dee612a51565b9050612dfa8282612db3565b919050565b600067ffffffffffffffff821115612e1a57612e19612d84565b5b612e2382612b66565b9050602081019050919050565b82818337600083830152505050565b6000612e52612e4d84612dff565b612de4565b905082815260208101848484011115612e6e57612e6d612d7f565b5b612e79848285612e30565b509392505050565b600082601f830112612e9657612e95612d7a565b5b8135612ea6848260208601612e3f565b91505092915050565b600060208284031215612ec557612ec4612a5b565b5b600082013567ffffffffffffffff811115612ee357612ee2612a60565b5b612eef84828501612e81565b91505092915050565b60008060408385031215612f0f57612f0e612a5b565b5b6000612f1d85828601612bf3565b9250506020612f2e85828601612bf3565b9150509250929050565b612f4181612bd2565b82525050565b612f5081612c55565b82525050565b612f5f81612aea565b82525050565b608082016000820151612f7b6000850182612f38565b506020820151612f8e6020850182612f38565b506040820151612fa16040850182612f47565b506060820151612fb46060850182612f56565b50505050565b6000608082019050612fcf6000830184612f65565b92915050565b600060208284031215612feb57612fea612a5b565b5b6000612ff984828501612ca8565b91505092915050565b600081519050919050565b600082825260208201905092915050565b6000819050602082019050919050565b6080820160008201516130446000850182612f38565b5060208201516130576020850182612f38565b50604082015161306a6040850182612f47565b50606082015161307d6060850182612f56565b50505050565b600061308f838361302e565b60808301905092915050565b6000602082019050919050565b60006130b382613002565b6130bd818561300d565b93506130c88361301e565b8060005b838110156130f95781516130e08882613083565b97506130eb8361309b565b9250506001810190506130cc565b5085935050505092915050565b6000602082019050818103600083015261312081846130a8565b905092915050565b61313181612aea565b811461313c57600080fd5b50565b60008135905061314e81613128565b92915050565b6000806040838503121561316b5761316a612a5b565b5b600061317985828601612ca8565b925050602061318a8582860161313f565b9150509250929050565b600067ffffffffffffffff8211156131af576131ae612d84565b5b6131b882612b66565b9050602081019050919050565b60006131d86131d384613194565b612de4565b9050828152602081018484840111156131f4576131f3612d7f565b5b6131ff848285612e30565b509392505050565b600082601f83011261321c5761321b612d7a565b5b813561322c8482602086016131c5565b91505092915050565b6000806000806080858703121561324f5761324e612a5b565b5b600061325d87828801612ca8565b945050602061326e87828801612ca8565b935050604061327f87828801612bf3565b925050606085013567ffffffffffffffff8111156132a05761329f612a60565b5b6132ac87828801613207565b91505092959194509250565b600080604083850312156132cf576132ce612a5b565b5b600083013567ffffffffffffffff8111156132ed576132ec612a60565b5b6132f985828601612e81565b925050602061330a85828601612bf3565b9150509250929050565b6000806040838503121561332b5761332a612a5b565b5b600061333985828601612ca8565b925050602061334a85828601612ca8565b9150509250929050565b7f4e487b7100000000000000000000000000000000000000000000000000000000600052602260045260246000fd5b6000600282049050600182168061339b57607f821691505b6020821081036133ae576133ad613354565b5b50919050565b60006060820190506133c96000830186612c67565b6133d66020830185612cfd565b6133e36040830184612c67565b949350505050565b7f596f7520616c72656164206f776e2074686973204e6674000000000000000000600082015250565b6000613421601783612b2b565b915061342c826133eb565b602082019050919050565b6000602082019050818103600083015261345081613414565b9050919050565b7f506c65617365207375626d6974207468652061736b696e672070726963650000600082015250565b600061348d601e83612b2b565b915061349882613457565b602082019050919050565b600060208201905081810360008301526134bc81613480565b9050919050565b7f4e487b7100000000000000000000000000000000000000000000000000000000600052601160045260246000fd5b60006134fd82612bd2565b9150600082036135105761350f6134c3565b5b600182039050919050565b7f496e646578206f7574206f6620626f756e647300000000000000000000000000600082015250565b6000613551601383612b2b565b915061355c8261351b565b602082019050919050565b6000602082019050818103600083015261358081613544565b9050919050565b600081905092915050565b600061359d82612b20565b6135a78185613587565b93506135b7818560208601612b3c565b80840191505092915050565b60006135cf8284613592565b915081905092915050565b7f4e487b7100000000000000000000000000000000000000000000000000000000600052603260045260246000fd5b7f596f7520617265206e6f74206f776e206f662074686973204e66740000000000600082015250565b600061363f601b83612b2b565b915061364a82613609565b602082019050919050565b6000602082019050818103600083015261366e81613632565b9050919050565b7f74686973206e6674206973206c69737465640000000000000000000000000000600082015250565b60006136ab601283612b2b565b91506136b682613675565b602082019050919050565b600060208201905081810360008301526136da8161369e565b9050919050565b7f7072696365206d757374206265206174206c6561737420312077656900000000600082015250565b6000613717601c83612b2b565b9150613722826136e1565b602082019050919050565b600060208201905081810360008301526137468161370a565b9050919050565b600061375882612bd2565b91507fffffffffffffffffffffffffffffffffffffffffffffffffffffffffffffffff820361378a576137896134c3565b5b600182019050919050565b7f6e65775072696365206d757374206265206174206c6561737420312077656920600082015250565b60006137cb602083612b2b565b91506137d682613795565b602082019050919050565b600060208201905081810360008301526137fa816137be565b9050919050565b7f746f6b656e555249206973207573656400000000000000000000000000000000600082015250565b6000613837601083612b2b565b915061384282613801565b602082019050919050565b600060208201905081810360008301526138668161382a565b9050919050565b7f7072696365206d75737420626520657175616c20746f206c697374696e67207060008201527f7269636500000000000000000000000000000000000000000000000000000000602082015250565b60006138c9602483612b2b565b91506138d48261386d565b604082019050919050565b600060208201905081810360008301526138f8816138bc565b9050919050565b600061390b8285613592565b91506139178284613592565b91508190509392505050565b600061392e82612bd2565b915061393983612bd2565b9250828201905080821115613951576139506134c3565b5b92915050565b600081519050919050565b600082825260208201905092915050565b600061397e82613957565b6139888185613962565b9350613998818560208601612b3c565b6139a181612b66565b840191505092915050565b60006080820190506139c16000830187612c67565b6139ce6020830186612c67565b6139db6040830185612cfd565b81810360608301526139ed8184613973565b905095945050505050565b600081519050613a0781612a91565b92915050565b600060208284031215613a2357613a22612a5b565b5b6000613a31848285016139f8565b91505092915050565b60008190508160005260206000209050919050565b60006020601f8301049050919050565b600082821b905092915050565b600060088302613a9c7fffffffffffffffffffffffffffffffffffffffffffffffffffffffffffffffff82613a5f565b613aa68683613a5f565b95508019841693508086168417925050509392505050565b6000819050919050565b6000613ae3613ade613ad984612bd2565b613abe565b612bd2565b9050919050565b6000819050919050565b613afd83613ac8565b613b11613b0982613aea565b848454613a6c565b825550505050565b600090565b613b26613b19565b613b31818484613af4565b505050565b5b81811015613b5557613b4a600082613b1e565b600181019050613b37565b5050565b601f821115613b9a57613b6b81613a3a565b613b7484613a4f565b81016020851015613b83578190505b613b97613b8f85613a4f565b830182613b36565b50505b505050565b600082821c905092915050565b6000613bbd60001984600802613b9f565b1980831691505092915050565b6000613bd68383613bac565b9150826002028217905092915050565b613bef82612b20565b67ffffffffffffffff811115613c0857613c07612d84565b5b613c128254613383565b613c1d828285613b59565b600060209050601f831160018114613c505760008415613c3e578287015190505b613c488582613bca565b865550613cb0565b601f198416613c5e86613a3a565b60005b82811015613c8657848901518255600182019150602085019450602081019050613c61565b86831015613ca35784890151613c9f601f891682613bac565b8355505b6001600288020188555050505b505050505050565b6000608082019050613ccd6000830187612cfd565b613cda6020830186612cfd565b613ce76040830185612c67565b613cf46060830184612af6565b95945050505050565b6000604082019050613d126000830185612c67565b613d1f6020830184612cfd565b9392505050565b7f4e487b7100000000000000000000000000000000000000000000000000000000600052601260045260246000fdfea264697066735822122080d09721d450bd1c8f7b08ebc40c0558dcb5e982e04f9c0ff7ce64cd27214cf464736f6c634300081c0033",
  "linkReferences": {},
  "deployedLinkReferences": {}
}